S015000066697273745F70726F6A6563742E7372656391
S3150800000068080020F91400081515000819150008D5
S315080000101D15000821150008251500080000000018
S31508000020000000000000000000000000291500087C
S315080000302D15000800000000311500088B11000876
S31508000040391500083D150008411500084515000832
S31508000050491500084D1500085115000855150008E2
S31508000060591500085D150008611500086515000892
S31508000070691500086D150008711500087515000842
S31508000080791500087D1500088115000885150008F2
S31508000090891500088D1500089115000895150008A2
S315080000A0991500089D150008A1150008A515000852
S315080000B0A9150008AD150008B1150008B515000802
S315080000C0B9150008BD150008C1150008C5150008B2
S315080000D0C9150008CD150008D1150008C302000887
S315080000E0D9150008DD150008E1150008DFF8D40564
S315080000F00021017007E00021DFF8CC250378D154F0
S315080001000178491C017001781429F4DB002101707B
S31508000110704718B589B00121012000F0FAFB0121CA
S31508000120022000F0F6FB0121042000F0E4FB012187
S31508000130082000F0E0FB01A800F094FC18208DF8D8
S315080001400700CC20ADF8040002208DF8060001A9AE
S31508000150DFF8780500F026FC684600F083FC1820D6
S315080001608DF803000320ADF8000002208DF8020088
S315080001706946DFF85C0500F015FC06A800F0D0FD1E
S315080001804820ADF8180044F62060ADF81C000020A1
S31508000190ADF81E000020ADF81A0006A95FF08040F1
S315080001A000F06EFCDFF82C4506A9200000F068FC7C
S315080001B002A800F0C1FD0020ADF80E006020ADF8E1
S315080001C008000120ADF80A000020ADF8100002A9C9
S315080001D05FF0804000F02CFD02A95FF0804000F03F
S315080001E06BFD02A9200000F094FC02A9200000F093
S315080001F0DAFC02A9200000F01BFD02A9200000F08D
S315080002005BFD01215FF0804000F0A7FD0121200081
S3150800021000F0A3FD0AB010BD10B586B001215FF449
S31508000220802000F076FB27208DF8040000208DF84A
S31508000230050000208DF8060001208DF8070001A8AA
S3150800024000F0B0FD4FF48060ADF8000018208DF87E
S31508000250030003208DF80200DFF874446946200085
S3150800026000F0A0FB4FF40060ADF8000004208DF804
S3150800027003006946200000F095FB4FF416400290F3
S315080002800020ADF80C000020ADF80E000020ADF8F7
S3150800029010000020ADF814000C20ADF81200DFF8AD
S315080002A0384402A9200000F0B5FD0121200000F025
S315080002B013FE012240F22551200000F01BFE06B075
S315080002C010BD70B5DFF810040188890630D5DFF84F
S315080002D00C5400F039FE2870DFF8E8030178DFF8DF
S315080002E0E8432A78C9B262540178491C017000783B
S315080002F0142801DBFFF7FAFE0725002614E0A05DA7
S315080003000D2810D1A819205C0D280CD1002006282C
S3150800031009DA215CDFF8C82311540120DFF8C41379
S315080003200860FFF7E3FE761CD5F114008642E6DB8B
S3150800033070BD80B500F0FEF95FF4803000F01AFA5F
S3150800034000F034FAC0B201281FD1002000F064FA88
S31508000350002000F071FA4FF4806000F065FA5FF44F
S31508000360E0115FF4803000F03DFA012000F043FA16
S31508000370392000F0DCFA0028FAD0022000F03FFA13
S3150800038000F045FA0828FBD101BDFEE770B586B036
S3150800039001214FF4804000F0BCFA01A800F0F7FDF7
S315080003A04FF44040ADF804004FF48270ADF80600F3
S315080003B04FF40060ADF808000220ADF80A000120ED
S315080003C0ADF80C004FF40076ADF80E603820ADF8A5
S315080003D010000020ADF812000720ADF81400C24C3A
S315080003E001A9200000F0B4FD4FF40050ADF800005C
S315080003F018208DF8030003208DF80200B44D6946D5
S31508000400280000F0CFFA4FF40040ADF8000018209D
S315080004108DF8030003208DF802006946280000F0D5
S31508000420C1FA4FF48070ADF8000014208DF803006F
S3150800043003208DF80200A54D6946280000F0B2FA9F
S31508000440ADF8006014208DF8030003208DF8020033
S315080004506946280000F0A6FA4FF48060ADF800005F
S3150800046010208DF8030003208DF802006946280045
S3150800047000F098FA0121200000F09CFD4FF400716D
S31508000480280000F0FAFA4FF48071280000F0F2FA1A
S3150800049006B070BD70B504008C4D4FF4806128001D
S315080004A000F0E8FA4FF48061280000F0E3FA4FF410
S315080004B08061280000F0DEFA8B4E0221300000F041
S315080004C089FD0028F8D0210089B2300000F080FDAF
S315080004D00221300000F07EFD0028F9D04FF480613B
S315080004E0280000F0CAFA4FF48061280000F0C5FA27
S315080004F04FF48061280000F0C0FA70BD80B5002076
S31508000500FFF7C8FF0020794908800020784908804D
S31508000510002078490880002077490880002077491C
S31508000520088000207649088001BD10B500240028FF
S3150800053011D0022823D019D3042834D02AD3062868
S3150800054045D03BD3082856D04CD30A2867D05DD36C
S315080005500B286FD077E06B480088044320006A4A6E
S31508000560148830EA0404614801806EE06548008812
S3150800057084436548008804435C48018065E0634815
S31508000580008804432000624A148830EA0404584864
S3150800059001805AE05D48008884435D48008804432A
S315080005A05348018051E05B480088044320005A4ABA
S315080005B0148830EA04044F48018046E0554800880C
S315080005C084435548008804434A4801803DE053481F
S315080005D0008804432000524A148830EA0404464836
S315080005E0018032E04D48008884434D480088044322
S315080005F04148018029E04B480088044320004A4AC4
S31508000600148830EA04043D4801801EE04548008805
S3150800061084434548008804433848018015E0434828
S31508000620008804432000424A148830EA0404344807
S3150800063001800AE03D48008884433D480088044319
S315080006402F48018001E0FFF759FF200080B2FFF72D
S3150800065021FF10BD70B504000D00214E307800F062
S3150800066065FD31787078B078F078307970794E20F9
S31508000670414329600020206070BD1CB5FFF759FE74
S31508000680FFF747FDFFF7C8FDFFF780FE00F085FD81
S31508000690144C206800280FD00020019000200090FC
S315080006A001A96846FFF7D6FF01990098FFF73DFFB5
S315080006B000202060FFF71AFD0A2000F08FFDE7E70B
S315080006C000000000640000203000002000080140FF
S315080006D0000C01400004004000480040650000206E
S315080006E0440000202C000020003800403C00004058
S315080006F04000004034040040380400403C040040F8
S31508000700400400404C0000204E000020500000200D
S3150800071052000020540000205600002058000020F7
S315080007205A0000205C0000205E00002060000020C7
S3150800073062000020DFF83412086850F001000860F3
S31508000740DFF82C221368DFF82C02034013600B68CD
S31508000750DFF8240203400B60086830F48020086044
S31508000760106830F4FE0010605FF41F00DFF80C120A
S3150800077008607047DFF8F4110A6832F480320A60BC
S315080007800A6832F480220A60B0F5803F03D0B0F5DB
S31508000790802F05D009E0086850F48030086004E02E
S315080007A0086850F4A0200860FFE7704780B500206D
S315080007B0009000200020312000F0B9F80099491C6B
S315080007C000910099B1F5A06F02D0C0B20028F2D00E
S315080007D0312000F0ACF8002801D0012000E000200C
S315080007E0C0B202BD0022624B1A6832F47C1208437A
S315080007F0104318607047C0B261490860704700210D
S315080008005B4A116889088900084310607047584890
S31508000810006810F00C0070470021554A116831F045
S31508000820F0010843106070470021514A116831F4FD
S31508000830E06108431060704700214D4A116831F4A1
S31508000840605151EAC0011160704710B400210021BF
S3150800085000210021464A116811F00C01002904D034
S31508000860042905D0082906D01EE0474901601DE085
S31508000870454901601AE0136813F47013116811F4FE
S3150800088080319B0C9B1C002903D140494B430360D4
S3150800089009E01168890303D53C494B43036002E02C
S315080008A039494B43036001E037490160116811F08B
S315080008B0F0010909364B595C0468CC40446011685C
S315080008C011F4E061090A595C4468CC4084601168F7
S315080008D011F46051C90A595C4368CB40C36011687A
S315080008E011F44041890B2B4A515CC268B2FBF1F105
S315080008F0016110BC7047C9B2002904D026490A68AC
S315080009001043086004E024490A6832EA00000860D7
S315080009107047C9B2002904D020490A681043086004
S3150800092004E01E490A6832EA0000086070470021A0
S31508000930002100210100C9B24909C9B2012902D121
S315080009400A49096806E0022902D10E49096801E048
S3150800095013490968C0B210F01F00C140C80701D585
S31508000960012000E00020C0B27047000000100240DD
S31508000970041002400000FFF8FFFFF6FE08100240D0
S31508000980600042422010024000127A0000093D0031
S315080009900000002010000020181002401C10024021
S315080009A024100240F0B40022002200220022002275
S315080009B00022CB7813F00F03CA78D20601D58A78BD
S315080009C013430A78120620D0066800241AE0CA786B
S315080009D0482A16D1A740076113E0012717FA04F53C
S315080009E00A882A40AA420CD1A2000F259540AE4398
S315080009F013FA02F232431600CA78282AE7D1A7402A
S31508000A004761641C082CE8D306600A88B2F5807F23
S31508000A1026DB4668002420E0012714F1080517FAAA
S31508000A2005F50A882A40AA4216D1A2000F25954044
S31508000A30AE4313FA02F232431600CA78282A04D1C2
S31508000A4014F1080217FA02F24261CA78482A03D159
S31508000A5014F1080297400761641C082CDCD3466031
S31508000A60F0BC70474FF6FF710180022181700421A6
S31508000A70C170704789B20161704789B24161704798
S31508000A8010B400220488DFF8F032984212D0DFF85A
S31508000A90002390420ED0B0F1804F0BD0DFF8DC2255
S31508000AA0904207D0DFF8D822904203D0DFF8D4224C
S31508000AB0904204D14FF68F7214404A881443DFF8E7
S31508000AC0C822904208D0DFF8C422904204D04FF6DC
S31508000AD0FF421440CA88144304808A8882850A889B
S31508000AE0028598420FD0DFF8A82290420BD0DFF893
S31508000AF0A422904207D0DFF8A022904203D0DFF864
S31508000B009C22904201D1097A01860121818210BC7A
S31508000B10704730B4002200220022038C4FF6FE7282
S31508000B2013400384058C8388048B4FF68F72144018
S31508000B304FF6FC7214400A8814434FF6FD721540AE
S31508000B400A8915434A881543DFF82C2290420FD0AC
S31508000B50DFF83C2290420BD0DFF83822904207D0CB
S31508000B60DFF83422904203D0DFF83022904213D1C6
S31508000B704FF6F77215404A8915434FF6FB72154032
S31508000B808A8815434FF6FF6213404FF6FF5213400B
S31508000B908A891343CA89134383800483C988818653
S31508000BA0058430BC704730B4002200220022038C32
S31508000BB04FF6EF7213400384058C8388048B48F63E
S31508000BC0FF7214404FF6FF4214400A8854EA022482
S31508000BD04FF6DF7215400A8955EA02154A8855EA22
S31508000BE00215DFF89421904203D0DFF8B421904231
S31508000BF017D14FF67F7215404A8955EA02154FF606
S31508000C00BF7215408A8855EA02154FF6FF3213401F
S31508000C104FF2FF7213408A8953EA8203CA8953EA5C
S31508000C20820383800483C9880187058430BC7047A2
S31508000C3030B4002200220022038C4FF6FF621340D4
S31508000C400384058C8388848B4FF68F7214404FF685
S31508000C50FC7214400A8814434FF6FF5215400A895D
S31508000C6055EA02254A8855EA0225DFF80C21904202
S31508000C7003D0DFF82C21904217D14FF2FF721540AE
S31508000C804A8955EA02254FF6FF3215408A8855EA01
S31508000C9002254EF6FF7213404DF6FF7213408A89FD
S31508000CA053EA0213CA8953EA021383808483C988E4
S31508000CB08187058430BC704730B4002200220022A8
S31508000CC0038C4EF6FF7213400384048C8588838B4D
S31508000CD048F6FF7213404FF6FF4213400A8853EA5C
S31508000CE002234DF6FF7214400A8954EA02344A88F0
S31508000CF054EA0234DFF88020904203D0DFF8A020BF
S31508000D00904205D14BF6FF7215408A8955EA82153D
S31508000D1085808383C988A0F84010048430BC704756
S31508000D204FF6FF718180002101800021C1800021DA
S31508000D304180002101727047002101800021418015
S31508000D40002181800021C18000210181002141818B
S31508000D50002181810021C1817047C9B2002904D0D0
S31508000D60018851F00101018004E002884FF6FE7106
S31508000D700A40028070470000002C01400004004031
S31508000D8000080040000C004000100040001400401D
S31508000D900034014000400140004401400048014041
S31508000DA000340140002100210F23C17800291ED0FC
S31508000DB01449096811F4E061D1F5E061090AD1F135
S31508000DC00402CB40417811FA02F281780B401A43AB
S31508000DD012010D490378CA540121027812F01F0244
S31508000DE091400A4A0078401142F8201009E0012192
S31508000DF0027812F01F029140054A0078401142F825
S31508000E00201070470CED00E000E400E000E100E08F
S31508000E1080E100E078B585B005000C0000200020D0
S31508000E20002000200020A08900282E00298A4CF6E0
S31508000E30FF700140E08801432982A9894EF6F31024
S31508000E400140A28820890243608902431143A9818F
S31508000E50A98A4FF6FF400140A0890143A982684646
S31508000E60FFF7F3FC1B48864201D1039900E002997B
S31508000E70A889000406D51920414320684000B1FB23
S31508000E80F0F205E01920414320688000B1FBF0F23A
S31508000E906420B2FBF0F109010B001B09642000FB7A
S31508000EA01322A889000408D5D00032306422B0FB8A
S31508000EB0F2F010F00700014307E010013230642217
S31508000EC0B0FBF2F010F00F000143298106B070BDA7
S31508000ED00000000000380140C9B2002904D0818909
S31508000EE051F40051818104E082894DF6FF710A4070
S31508000EF08281704710B400230023002300230B00CF
S31508000F0040F66A149BB2A3420B00DBB25B09DBB264
S31508000F1089B211F01F01012414FA01F1012B01D144
S31508000F200C3004E0022B01D1103000E01430D2B2AC
S31508000F30002A03D002681143016003E0026832EA1E
S31508000F400101016010BC70478088C005C00D70475C
S31508000F5010B40022038813F441530C884A881443BA
S31508000F608A881443CA8814430A8914434A8914434D
S31508000F708A891443CA89144323430380838B4FF217
S31508000F80FF7213408383098A018210BC70470021CF
S31508000F90018000214180002181800021C18000213B
S31508000FA0018100214181002181810021C181072120
S31508000FB001827047C9B2002904D0018851F0400166
S31508000FC0018004E002884FF6BF710A40028070472C
S31508000FD08181704700220089084201D0012000E083
S31508000FE00020C0B2704700002DE9F84F84B00BB15D
S31508000FF000241C600446A04601E008F1010898F8A0
S315080010000000A0F10903052BF7D32028F5D02D28D9
S3150800101016BF2B2818F8015B2B25002A019103D44B
S31508001020012A01D0252A03DB002959D00C6057E094
S31508001030002A0CDD102A04BF98F80000302802BFE9
S3150800104098F8010040F02000782811D10CE098F8B3
S315080010500000302818BF0A220AD198F8010040F08B
S315080010602000782803D1102208F1020800E008229F
S31508001070CDF80C8001E008F1010898F80000302846
S31508001080F9D0074E7E4418364FF0000906F12800BD
S31508001090CDF80880CA468DF8000017460CE000BF58
S315080010A0500300009DF80010401ACA465FFA80FBFC
S315080010B007FB09B908F1010898F80010A1F14100E9
S315080010C01A2838BF20313A4606F1280000F092F86F
S315080010D00028E7D10399414504D1019800B104607D
S315080010E0002020E00299F05DA8EB0101081A00280B
S315080010F010D406DCB9EB0B0103D3B1FBF7F050456E
S3150800110008D0AFF30080049808B1012101604FF0C0
S31508001110FF3903E02D2D08BFC9F10009019808B170
S31508001120C0F80080484605B0BDE8F08FFFE7002309
S315080011300A22002158E70000020052B2002A04D40D
S3150800114009011E4A40B2115407E009011C4A40B27F
S3150800115010F00F00104400F8041C704780B5411EBB
S31508001160B1F1807F01D301200EE0401E15490860C9
S315080011700F215FF0FF30FFF7DFFF002012490860FC
S31508001180072012490860002002BD11490868002896
S3150800119002D00868401E0860704780B500F078F8ED
S315080011A00C4800680C49B0FBF1F0FFF7D7FF01BD0A
S315080011B00749086008680028FCD1704700E400E089
S315080011C018ED00E014E000E018E000E010E000E0B0
S315080011D0280000201400002040420F0010B504002B
S315080011E003E04FF47A70FFF7E3FF2000441E00285F
S315080011F0F7D110BDC9B2830706D0521E22D310F804
S31508001200013B9942F7D11FE0083A13D302F10402D1
S3150800121041EA012141EA014150F8043B121F21BF6E
S315080012204B40A3F1013C2CEA030C1CF0803FF3D0A1
S31508001230C9B2001F083210F8013B521E28BF91EAB6
S31508001240030FF8D818BF0120401E704780B55D49C6
S31508001250086850F0010008605B4A13685B48034061
S3150800126013600B685A4803400B60086830F4802006
S315080012700860106830F4FE0010605FF41F005549DE
S31508001280086000F044F85FF000605349086001BD4B
S315080012900020002000204C49086810F00C000028A7
S315080012A004D0042806D0082808D023E04B484C4A26
S315080012B0106022E049484A4A10601EE00A6812F4A3
S315080012C07012086810F48030920C921C002804D121
S315080012D044484243424802600BE00868800304D54C
S315080012E0404842433E48026003E03C4842433C488B
S315080012F0026002E039483A4A106008683A49C0F381
S315080013000310085C36490A68C2400A60704780B50F
S3150800131000F001F801BD82B0002001900020009085
S315080013202849086850F480300860086810F40030CE
S3150800133000900198401C01900098002803D101985C
S31508001340B0F5A06FF1D10868800302D5012000909E
S3150800135001E0002000900098012831D12348026856
S3150800136052F0100202600268920892000260026857
S3150800137052F00202026014480268026002680260C3
S31508001380026852F480620260026832F47C120260DB
S31508001390026852F4E81202600A6852F080720A6023
S315080013A00A689201FCD5016889088900016001680C
S315080013B051F002010160016811F00C010829FAD107
S315080013C002B0704700100240041002400000FFF807
S315080013D0FFFFF6FE0810024008ED00E000127A0052
S315080013E01400002000093D001800002000200240DB
S315080013F000002115110E0D0C0B0B0A0A0909090923
S315080014000908080808080808070707070707070755
S3150800141007070707070000003031323334353637FF
S3150800142038396162636465666768696A6B6C6D6E94
S315080014306F707172737475767778797A0000000028
S3150800144030B5016884684218416802EB5103C90740
S3150800145003D54C4401E0491C05D19A420AD012F939
S31508001460011B12F8015B002904F8015BF3D4491E3D
S31508001470F7D5F2E70C3030BD10B507497944183175
S31508001480064C7C44163404E00A68081D1144884753
S315080014900146A142F8D110BD080000001400000062
S315080014A0A1FFFFFF400100007E00000000000020B1
S315080014B000F00DF8002801D0FFF7DEFFAFF300803B
S315080014C00020AFF30080FFF7D8F800F002F80120FB
S315080014D0704700F001B800000746384600F002F8E9
S315080014E0FBE7000080B5AFF30080024A1100182020
S315080014F0ABBEFBE7260002000148804701480047CB
S315080015004D12000809150008AFF30080AFF30080FC
S31508001510FFF7CEFFFFF7FEBFFFF7FEBFFFF7FEBFE1
S31508001520FFF7FEBFFFF7FEBFFFF7FEBFFFF7FEBFE1
S31508001530FFF7FEBFFFF729BEFFF7FEBFFFF7FEBFA7
S31508001540FFF7FEBFFFF7FEBFFFF7FEBFFFF7FEBFC1
S31508001550FFF7FEBFFFF7FEBFFFF7FEBFFFF7FEBFB1
S31508001560FFF7FEBFFFF7FEBFFFF7FEBFFFF7FEBFA1
S31508001570FFF7FEBFFFF7FEBFFFF7FEBFFFF7FEBF91
S31508001580FFF7FEBFFFF7FEBFFFF7FEBFFFF7FEBF81
S31508001590FFF7FEBFFFF7FEBFFFF7FEBFFFF7FEBF71
S315080015A0FFF7FEBFFFF7FEBFFFF7FEBFFFF7FEBF61
S315080015B0FFF7FEBFFFF7FEBFFFF7FEBFFFF7FEBF51
S315080015C0FFF7FEBFFFF7FEBFFFF7FEBFFFF7FEBF41
S315080015D0FFF7FEBFFEF775BEFFF7FEBFFFF7FEBFBC
S315080015E0FFF7FEBFFC001301020304010203040611
S315080015F00708090204060800A24A04F800070102BF
S31508001600030406070809DC001901000200040008A3
S3150800161000400080001000200000010002000400C5
S30808001620080000B1
S70508001509D4
