S015000066697273745F70726F6A6563742E7372656391
S315080000009808002075140008991400089D14000823
S31508000010A1140008A5140008A9140008000000008F
S31508000020000000000000000000000000AD140008F9
S31508000030B114000800000000B51400083B0F0008C2
S31508000040BD140008C1140008C5140008C914000826
S31508000050CD140008D1140008D5140008D9140008D6
S31508000060DD140008E1140008E5140008E914000886
S31508000070ED140008F1140008F5140008F914000836
S31508000080FD140008011500080515000809150008E3
S315080000900D15000811150008151500081915000892
S315080000A01D15000821150008251500082915000842
S315080000B02D150008311500083515000839150008F2
S315080000C03D150008411500084515000849150008A2
S315080000D04D1500085115000855150008C3020008FB
S315080000E05D1500086115000865150008DFF8C404E9
S315080000F00021017007E00021DFF8BC240378D15401
S315080001000178491C017001784629F4DB0021017049
S31508000110704718B589B00121012000F05EFB012166
S31508000120022000F05AFB0121042000F048FB0121BF
S31508000130082000F044FB01A800F0F8FB18208DF811
S315080001400700CC20ADF8040002208DF8060001A9AE
S31508000150DFF8680400F08AFB684600F0E7FB182021
S315080001608DF803000320ADF8000002208DF8020088
S315080001706946DFF84C0400F079FB06A800F034FD68
S315080001804820ADF8180044F62060ADF81C000020A1
S31508000190ADF81E000020ADF81A0006A95FF08040F1
S315080001A000F0D2FBDFF81C4406A9200000F0CCFBC7
S315080001B002A800F025FD0020ADF80E006020ADF87D
S315080001C008000120ADF80A000020ADF8100002A9C9
S315080001D05FF0804000F090FC02A95FF0804000F0DC
S315080001E0CFFC02A9200000F0F8FB02A9200000F0CD
S315080001F03EFC02A9200000F07FFC02A9200000F0C6
S31508000200BFFC01215FF0804000F00BFD01212000BA
S3150800021000F007FD0AB010BD10B586B001215FF4E5
S31508000220802000F0DAFA27208DF8040000208DF8E7
S31508000230050000208DF8060001208DF8070001A8AA
S3150800024000F014FD4FF48060ADF8000018208DF81A
S31508000250030003208DF80200DFF864436946200096
S3150800026000F004FB4FF40060ADF8000004208DF8A0
S3150800027003006946200000F0F9FA4FF41640029090
S315080002800020ADF80C000020ADF80E000020ADF8F7
S3150800029010000020ADF814000C20ADF81200DFF8AD
S315080002A0284302A9200000F019FD0121200000F0D2
S315080002B077FD012240F22551200000F07FFD06B0AF
S315080002C010BD70B5C0480188890641D5BF4D00F0FC
S315080002D09FFD2870B7480178B74C2A78C9B262548E
S315080002E00178491C01700078462801DBFFF7FEFEFD
S315080002F0072500260EE0311821444978B44A22F829
S315080003001010401C0628F6DB0120B2490860FFF7EA
S31508000310EDFE761CD5F14600864219DAA05D0D2859
S31508000320F7D1A819205C0D28F3D1AB490868002835
S315080003300CD00020086000200628E8DA311821448D
S315080003404978A64A22F81010401CF5E70020D9E79C
S3150800035070BD80B500F052F95FF4803000F06EF998
S3150800036000F088F9C0B201281FD1002000F0B8F9C2
S31508000370002000F0C5F94FF4806000F0B9F95FF489
S31508000380E0115FF4803000F091F9012000F097F950
S31508000390392000F030FA0028FAD0022000F093F94C
S315080003A000F099F90828FBD101BDFEE770B586B0C3
S315080003B001214FF4804000F010FA01A800F04BFD2F
S315080003C04FF44040ADF804004FF48270ADF80600D3
S315080003D04FF40060ADF808000220ADF80A000120CD
S315080003E0ADF80C004FF40076ADF80E603820ADF885
S315080003F010000020ADF812000720ADF81400784C64
S3150800040001A9200000F008FD4FF40050ADF80000E7
S3150800041018208DF8030003208DF80200684D694600
S31508000420280000F023FA4FF40040ADF80000182029
S315080004308DF8030003208DF802006946280000F0B5
S3150800044015FA4FF48070ADF8000014208DF80300FB
S3150800045003208DF80200594D6946280000F006FA77
S31508000460ADF8006014208DF8030003208DF8020013
S315080004706946280000F0FAF94FF48060ADF80000EC
S3150800048010208DF8030003208DF802006946280025
S3150800049000F0ECF90121200000F0F0FC4FF40071A7
S315080004A0280000F04EFA4FF48071280000F046FA52
S315080004B006B070BD70B50400404D4FF48061280049
S315080004C000F03CFA4FF48061280000F037FA4FF448
S315080004D08061280000F032FA414E0221300000F017
S315080004E0DDFC0028F8D0210089B2300000F0D4FCE9
S315080004F00221300000F0D2FC0028F9D04FF48061C8
S31508000500280000F01EFA4FF48061280000F019FA5E
S315080005104FF48061280000F014FA70BD38B584B035
S31508000520FFF717FFFFF7F5FDFFF776FEFFF73EFF2C
S3150800053000F00BFD274C2068002836D00C2100223D
S3150800054001AD280000F02EFD0020ADF800006B4636
S3150800055001AA1F49214800F0D2FD9B20BDF80410CE
S315080005604143204A1180BDF8061041431E4A1180B6
S31508000570BDF8081041431D4A1180BDF80A104143D1
S315080005801B4A1180BDF80C1041431A4A1180BDF868
S315080005900E1000FB01F018490880BDF80000FFF7AF
S315080005A089FF00202060FFF7A1FD0A2000F0EEFC7D
S315080005B0C0E70000940000202C000020000801403D
S315080005C0000C01400004004000480040950000204F
S315080005D08000002090000020000000207400002009
S315080005E0003800403C000040400000403404004011
S315080005F0380400403C04004040040040DFF8341250
S31508000600086850F001000860DFF82C221368DFF84C
S315080006102C02034013600B68DFF8240203400B60CA
S31508000620086830F480200860106830F4FE00106016
S315080006305FF41F00DFF80C1208607047DFF8F4114A
S315080006400A6832F480320A600A6832F480220A6044
S31508000650B0F5803F03D0B0F5802F05D009E00868D3
S3150800066050F48030086004E0086850F4A020086060
S31508000670FFE7704780B50020009000200020312059
S3150800068000F0B9F80099491C00910099B1F5A06FDE
S3150800069002D0C0B20028F2D0312000F0ACF8002811
S315080006A001D0012000E00020C0B202BD0022624B4A
S315080006B01A6832F47C120843104318607047C0B2B7
S315080006C061490860704700215B4A116889088900FA
S315080006D00843106070475848006810F00C007047CF
S315080006E00021554A116831F0F0010843106070473F
S315080006F00021514A116831F4E061084310607047DF
S3150800070000214D4A116831F4605151EAC001116067
S31508000710704710B40021002100210021464A1168C3
S3150800072011F00C01002904D0042905D0082906D0A7
S315080007301EE0474901601DE0454901601AE013685B
S3150800074013F47013116811F480319B0C9B1C00295B
S3150800075003D140494B43036009E01168890303D577
S315080007603C494B43036002E039494B43036001E0CF
S3150800077037490160116811F0F0010909364B595CD7
S315080007800468CC404460116811F4E061090A595CB8
S315080007904468CC408460116811F46051C90A595CF8
S315080007A04368CB40C360116811F44041890B2B4A5A
S315080007B0515CC268B2FBF1F1016110BC7047C9B265
S315080007C0002904D026490A681043086004E0244931
S315080007D00A6832EA000008607047C9B2002904D0E6
S315080007E020490A681043086004E01E490A6832EA8C
S315080007F00000086070470021002100210100C9B2ED
S315080008004909C9B2012902D10A49096806E002293B
S3150800081002D10E49096801E013490968C0B210F00F
S315080008201F00C140C80701D5012000E00020C0B262
S315080008307047000000100240041002400000FFF854
S31508000840FFFFF6FE081002406000424220100240F8
S3150800085000127A0000093D00040000201400002060
S31508000860181002401C10024024100240F0B4002266
S3150800087000220022002200220022CB7813F00F0368
S31508000880CA78D20601D58A7813430A78120620D088
S31508000890066800241AE0CA78482A16D1A7400761D4
S315080008A013E0012717FA04F50A882A40AA420CD150
S315080008B0A2000F259540AE4313FA02F23243160002
S315080008C0CA78282AE7D1A7404761641C082CE8D3D0
S315080008D006600A88B2F5807F26DB4668002420E099
S315080008E0012714F1080517FA05F50A882A40AA42CD
S315080008F016D1A2000F259540AE4313FA02F23243F1
S315080009001600CA78282A04D114F1080217FA02F246
S315080009104261CA78482A03D114F108029740076150
S31508000920641C082CDCD34660F0BC70474FF6FF7198
S315080009300180022181700421C170704789B201616A
S31508000940704789B24161704710B400220488DFF805
S31508000950F032984212D0DFF8002390420ED0B0F160
S31508000960804F0BD0DFF8DC22904207D0DFF8D82280
S31508000970904203D0DFF8D422904204D14FF68F720A
S3150800098014404A881443DFF8C822904208D0DFF89A
S31508000990C422904204D04FF6FF421440CA8814433A
S315080009A004808A8882850A88028598420FD0DFF8F3
S315080009B0A82290420BD0DFF8A422904207D0DFF895
S315080009C0A022904203D0DFF89C22904201D1097AF6
S315080009D001860121818210BC704730B400220022B2
S315080009E00022038C4FF6FE7213400384058C83881D
S315080009F0048B4FF68F7214404FF6FC7214400A8827
S31508000A0014434FF6FD7215400A8915434A88154363
S31508000A10DFF82C2290420FD0DFF83C2290420BD010
S31508000A20DFF83822904207D0DFF83422904203D00C
S31508000A30DFF83022904213D14FF6F77215404A89F3
S31508000A4015434FF6FB7215408A8815434FF6FF6229
S31508000A5013404FF6FF5213408A891343CA8913433A
S31508000A6083800483C9888186058430BC704730B486
S31508000A70002200220022038C4FF6EF7213400384F3
S31508000A80058C8388048B48F6FF7214404FF6FF42A4
S31508000A9014400A8854EA02244FF6DF7215400A8980
S31508000AA055EA02154A8855EA0215DFF8942190425C
S31508000AB003D0DFF8B421904217D14FF67F72154064
S31508000AC04A8955EA02154FF6BF7215408A8855EAD3
S31508000AD002154FF6FF3213404FF2FF7213408A8910
S31508000AE053EA8203CA8953EA820383800483C98846
S31508000AF00187058430BC704730B4002200220022EA
S31508000B00038C4FF6FF6213400384058C8388848B1D
S31508000B104FF68F7214404FF6FC7214400A8814433D
S31508000B204FF6FF5215400A8955EA02254A8855EAC2
S31508000B300225DFF80C21904203D0DFF82C219042E1
S31508000B4017D14FF2FF7215404A8955EA02254FF62A
S31508000B50FF3215408A8855EA02254EF6FF72134081
S31508000B604DF6FF7213408A8953EA0213CA8953EA7B
S31508000B70021383808483C9888187058430BC7047C3
S31508000B8030B4002200220022038C4EF6FF72134076
S31508000B900384048C8588838B48F6FF7213404FF6CE
S31508000BA0FF4213400A8853EA02234DF6FF721440A7
S31508000BB00A8954EA02344A8854EA0234DFF8802063
S31508000BC0904203D0DFF8A020904205D14BF6FF7281
S31508000BD015408A8955EA821585808383C988A0F8D5
S31508000BE04010048430BC70474FF6FF7181800021A5
S31508000BF001800021C18000214180002101727047D7
S31508000C000021018000214180002181800021C180CE
S31508000C100021018100214181002181810021C181BA
S31508000C207047C9B2002904D0018851F0010101803A
S31508000C3004E002884FF6FE710A4002807047000001
S31508000C40002C01400004004000080040000C004051
S31508000C5000100040001400400034014000400140EC
S31508000C6000440140004801400034014000210021B1
S31508000C700F23C17800291ED01449096811F4E061D0
S31508000C80D1F5E061090AD1F10402CB40417811FAA5
S31508000C9002F281780B401A4312010D490378CA54AF
S31508000CA00121027812F01F0291400A4A0078401189
S31508000CB042F8201009E00121027812F01F02914043
S31508000CC0054A0078401142F8201070470CED00E004
S31508000CD000E400E000E100E080E100E078B585B0DE
S31508000CE005000C0000200020002000200020A0891C
S31508000CF000282E00298A4CF6FF700140E08801433F
S31508000D002982A9894EF6F3100140A2882089024358
S31508000D10608902431143A981A98A4FF6FF40014021
S31508000D20A0890143A9826846FFF7F3FC1B4886425F
S31508000D3001D1039900E00299A889000406D5192073
S31508000D40414320684000B1FBF0F205E01920414319
S31508000D5020688000B1FBF0F26420B2FBF0F10901D3
S31508000D600B001B09642000FB1322A889000408D580
S31508000D70D00032306422B0FBF2F010F007000143D5
S31508000D8007E0100132306422B0FBF2F010F00F00D9
S31508000D900143298106B070BD0000000000380140FB
S31508000DA0C9B2002904D0818951F40051818104E037
S31508000DB082894DF6FF710A408281704710B400237C
S31508000DC00023002300230B0040F66A149BB2A342BB
S31508000DD00B00DBB25B09DBB289B211F01F010124FB
S31508000DE014FA01F1012B01D10C3004E0022B01D1D8
S31508000DF0103000E01430D2B2002A03D00268114342
S31508000E00016003E0026832EA0101016010BC704724
S31508000E108088C005C00D704710B40022038813F4FB
S31508000E2041530C884A8814438A881443CA88144351
S31508000E300A8914434A8914438A891443CA8914437C
S31508000E4023430380838B4FF2FF7213408383098AFF
S31508000E50018210BC704700210180002141800021D9
S31508000E6081800021C180002101810021418100216A
S31508000E7081810021C181072101827047C9B20029F9
S31508000E8004D0018851F04001018004E002884FF641
S31508000E90BF710A400280704781817047002200892D
S31508000EA0084201D0012000E00020C0B2704730B4EB
S31508000EB0002513E050F8042BD30744BFA9F101031A
S31508000EC09A18091F042942F8045BFAD213468C07BC
S31508000ED044BF15809B1CC90748BF1D7050F8041BEA
S31508000EE00029E7D130BC7047020052B2002A04D468
S31508000EF009011E4A40B2115407E009011C4A40B2D2
S31508000F0010F00F00104400F8041C704780B5411E0D
S31508000F10B1F1807F01D301200EE0401E154908601B
S31508000F200F215FF0FF30FFF7DFFF0020124908604E
S31508000F30072012490860002002BD114908680028E8
S31508000F4002D00868401E0860704780B500F036F980
S31508000F500C4800680C49B0FBF1F0FFF7D7FF01BD5C
S31508000F600749086008680028FCD1704700E400E0DB
S31508000F7018ED00E014E000E018E000E010E000E002
S31508000F808C0000201800002040420F0010B5040015
S31508000F9003E04FF47A70FFF7E3FF2000441E0028B1
S31508000FA0F7D110BD62F30F2262F31F42401810F00A
S31508000FB0030308D0C91A1FD3DB0748BF00F8012D61
S31508000FC028BF20F8022D130030B4144615461039F0
S31508000FD028BF20E93C00FAD8490728BF20E90C00B9
S31508000FE048BF40F8042D890028BF20F8022D48BFC5
S31508000FF000F8012D30BC7047C91818BF00F8012D3C
S31508001000CB0728BF00F8012D704730B40EE0026800
S31508001010436802440830DC0744BFA9F10104E31819
S3150800102052F8045B43F8045B091FF9D150F8041B16
S315080010300029ECD130BC7047020092B28A4202DB2A
S3150800104080B2401A01E080B2081A704780B288421E
S3150800105001DB002000E00120704710B4002A0DD003
S315080010600122038812FA01F453EA44030380038831
S3150800107012FA01F133EA010101800BE00123048829
S3150800108013FA01F214430480028813FA01F132EAD2
S315080010904102028010BC7047814200DB0020704785
S315080010A02DE9F14F0C0015001E000A9FDDF82C8073
S315080010B000205FF000091EE0009850F829A05FEABA
S315080010C04A0B56F8291055F8290080B2FFF7B4FFE5
S315080010D01E21FFF7E1FF27F81A0056F8291055F8E0
S315080010E0290080B2FFF7B2FF020059464046FFF7D3
S315080010F0B4FF19F10109A145DEDBBDE8F18F70B532
S3150800110092B014001D0000220AE031F812300AAE2F
S3150800111046F8223030F8123006AE46F82230521C15
S31508001120042AF2DB08890290488903900EA8104920
S31508001130102200F0F3F804A80E49D1E90023C0E90B
S3150800114000230298002808D004210195009406ABD4
S315080011500AAA0EA8FFF7A4FF07E00221019500944A
S3150800116006AB0AAA04A8FFF79BFF12B070BD0000E1
S31508001170641400089014000880B55D49086850F0AA
S31508001180010008605B4A13685B48034013600B68FC
S315080011905A4803400B60086830F4802008601068DD
S315080011A030F4FE0010605FF41F005549086000F037
S315080011B044F85FF000605349086001BD0020002034
S315080011C000204C49086810F00C00002804D00428B8
S315080011D006D0082808D023E04B484C4A106022E085
S315080011E049484A4A10601EE00A6812F470120868F4
S315080011F010F48030920C921C002804D144484243D3
S31508001200424802600BE00868800304D54048424320
S315080012103E48026003E03C4842433C48026002E024
S3150800122039483A4A106008683A49C0F30310085C1E
S3150800123036490A68C2400A60704780B500F001F86E
S3150800124001BD82B00020019000200090284908685E
S3150800125050F480300860086810F400300090019857
S31508001260401C01900098002803D10198B0F5A06FA2
S31508001270F1D10868800302D50120009001E0002022
S3150800128000900098012831D12348026852F01002D4
S3150800129002600268920892000260026852F0020236
S315080012A0026014480268026002680260026852F42A
S315080012B080620260026832F47C120260026852F4AC
S315080012C0E81202600A6852F080720A600A6892019F
S315080012D0FCD50168890889000160016851F002019E
S315080012E00160016811F00C010829FAD102B07047B3
S315080012F000100240041002400000FFF8FFFFF6FE4F
S315080013000810024008ED00E000127A0018000020DC
S3150800131000093D001C00002000200240103A07D3B7
S3150800132030B4B1E83810103AA0E83810F9D230BC19
S31508001330530724BFB1E80810A0E8081044BF51F8C5
S31508001340043B40F8043BD20724BF31F8022B20F8AF
S31508001350022B44BF0B7803707047121F17D35B002C
S3150800136009D151F8043B20F8023B1B0C121F20F848
S31508001370023BF6D20BE051F8043B00F8013B1B0A8E
S3150800138020F8023B1B0C121F00F8013BF3D238BFB2
S31508001390121D521E24BF11F8013B00F8013BF8D874
S315080013A0704700000100000000000000010203046D
S315080013B001020304060708090204060800A24A04F3
S315080013C000000000000000000102030406070809E7
S315080013D010B5074979441831064C7C44163404E0A4
S315080013E00A68081D114488470146A142F8D110BD74
S315080013F00800000028000000B7FAFFFF6C00000094
S315080014002C0000200000000003FCFFFF2C00000059
S3150800141094FFFFFF000000200000000000F00DF818
S31508001420002801D0FFF7D4FFAFF300800020AFF308
S315080014300080FFF773F800F002F80120704700F00B
S3150800144001B800000746384600F002F8FBE700003E
S3150800145080B5AFF30080024A11001820ABBEFBE747
S315080014602600020000000000010000000200000043
S315080014700300000001488047014800477911000829
S3150800148085140008AFF30080AFF30080FFF7C6FFAE
S315080014900400000005000000FFF7FEBFFFF7FEBFCF
S315080014A0FFF7FEBFFFF7FEBFFFF7FEBFFFF7FEBF62
S315080014B0FFF7FEBFFFF7FEBFFFF73FBDFFF7FEBF13
S315080014C0FFF7FEBFFFF7FEBFFFF7FEBFFFF7FEBF42
S315080014D0FFF7FEBFFFF7FEBFFFF7FEBFFFF7FEBF32
S315080014E0FFF7FEBFFFF7FEBFFFF7FEBFFFF7FEBF22
S315080014F0FFF7FEBFFFF7FEBFFFF7FEBFFFF7FEBF12
S31508001500FFF7FEBFFFF7FEBFFFF7FEBFFFF7FEBF01
S31508001510FFF7FEBFFFF7FEBFFFF7FEBFFFF7FEBFF1
S31508001520FFF7FEBFFFF7FEBFFFF7FEBFFFF7FEBFE1
S31508001530FFF7FEBFFFF7FEBFFFF7FEBFFFF7FEBFD1
S31508001540FFF7FEBFFFF7FEBFFFF7FEBFFFF7FEBFC1
S31508001550FFF7FEBFFFF7FEBFFEF7B3BEFFF7FEBFFE
S30D08001560FFF7FEBFFFF7FEBF0F
S7050800148559
