S015000066697273745F70726F6A6563742E7372656391
S31508000000D008002021140008491400084D140008DF
S31508000010511400085514000859140008000000007F
S315080000200000000000000000000000005D14000849
S315080000306114000800000000651400085B0F000842
S315080000406D14000871140008751400087914000866
S315080000507D14000881140008851400088914000816
S315080000608D140008911400089514000899140008C6
S315080000709D140008A1140008A5140008A914000876
S31508000080AD140008B1140008B5140008B914000826
S31508000090BD140008C1140008C5140008C9140008D6
S315080000A0CD140008D1140008D5140008D914000886
S315080000B0DD140008E1140008E5140008E914000836
S315080000C0ED140008F1140008F5140008F9140008E6
S315080000D0FD1400080115000805150008C3020008EC
S315080000E00D1500081115000815150008DFF8E004BD
S315080000F00021017007E00021DFF8D8240378D154E5
S315080001000178491C017001784629F4DB0021017049
S31508000110704718B589B00121012000F06EFB012156
S31508000120022000F06AFB0121042000F058FB01219F
S31508000130082000F054FB01A800F008FC18208DF8F0
S315080001400700CC20ADF8040002208DF8060001A9AE
S31508000150DFF8840400F09AFB684600F0F7FB1820E5
S315080001608DF803000320ADF8000002208DF8020088
S315080001706946DFF8680400F089FB06A800F044FD2C
S315080001804820ADF8180044F62060ADF81C000020A1
S31508000190ADF81E000020ADF81A0006A95FF08040F1
S315080001A000F0E2FBDFF8384406A9200000F0DCFB8B
S315080001B002A800F035FD0020ADF80E006020ADF86D
S315080001C008000120ADF80A000020ADF8100002A9C9
S315080001D05FF0804000F0A0FC02A95FF0804000F0CC
S315080001E0DFFC02A9200000F008FC02A9200000F0AC
S315080001F04EFC02A9200000F08FFC02A9200000F0A6
S31508000200CFFC01215FF0804000F01BFD012120009A
S3150800021000F017FD0AB010BD10B586B001215FF4D5
S31508000220802000F0EAFA27208DF8040000208DF8D7
S31508000230050000208DF8060001208DF8070001A8AA
S3150800024000F024FD4FF48060ADF8000018208DF80A
S31508000250030003208DF80200DFF88043694620007A
S3150800026000F014FB4FF40060ADF8000004208DF890
S3150800027003006946200000F009FB4FF4165002906F
S315080002800020ADF80C000020ADF80E000020ADF8F7
S3150800029010000020ADF814000C20ADF81200DFF8AD
S315080002A0444302A9200000F029FD0121200000F0A6
S315080002B087FD012240F22551200000F08FFD06B08F
S315080002C010BD70B5C7480188890641D5C64D00F0EE
S315080002D0AFFD2870BE480178BE4C2A78C9B2625470
S315080002E00178491C01700078462801DBFFF7FEFEFD
S315080002F0082500260EE0311821444978BB4A22F821
S315080003001010401C0728F6DB0120B9490860FFF7E2
S31508000310EDFE761CD5F14600864219DAA05DFF2867
S31508000320F7D1A819205C1328F3D1B2490868002828
S315080003300CD00020086000200728E8DA311821448C
S315080003404978AD4A22F81010401CF5E70020D9E795
S3150800035070BD80B500F062F95FF4803000F07EF978
S3150800036000F098F9C0B201281FD1002000F0C8F9A2
S31508000370002000F0D5F94FF4806000F0C9F95FF469
S31508000380E0115FF4803000F0A1F9012000F0A7F930
S31508000390392000F040FA0028FAD0022000F0A3F92C
S315080003A000F0A9F90828FBD101BDFEE770B586B0B3
S315080003B001214FF4804000F020FA01A800F05BFD0F
S315080003C04FF44040ADF804004FF48270ADF80600D3
S315080003D04FF40060ADF808000220ADF80A000120CD
S315080003E0ADF80C004FF40076ADF80E603820ADF885
S315080003F010000020ADF812000720ADF814007F4C5D
S3150800040001A9200000F018FD4FF40050ADF80000D7
S3150800041018208DF8030003208DF802006F4D6946F9
S31508000420280000F033FA4FF40040ADF80000182019
S315080004308DF8030003208DF802006946280000F0B5
S3150800044025FA4FF48070ADF8000014208DF80300EB
S3150800045003208DF80200604D6946280000F016FA60
S31508000460ADF8006014208DF8030003208DF8020013
S315080004706946280000F00AFA4FF48060ADF80000DB
S3150800048010208DF8030003208DF802006946280025
S3150800049000F0FCF90121200000F000FD4FF4007186
S315080004A0280000F05EFA4FF48071280000F056FA32
S315080004B006B070BD70B50400474D4FF48061280042
S315080004C000F04CFA4FF48061280000F047FA4FF428
S315080004D08061280000F042FA484E0221300000F000
S315080004E0EDFC0028F8D0210089B2300000F0E4FCC9
S315080004F00221300000F0E2FC0028F9D04FF48061B8
S31508000500280000F02EFA4FF48061280000F029FA3E
S315080005104FF48061280000F024FA70BD80B54FF4CE
S315080005207A70374908803749088042F21070364990
S3150800053008803649088036490880364908800220EE
S31508000540FFF7B8FF01BD38B584B0FFF702FFFFF724
S31508000550E0FDFFF761FEFFF729FF00F006FD244CDA
S3150800056000202060206800281CD001A82A4991E8AC
S315080005702C0080E82C000120ADF800006B4601AA8B
S315080005801A491D4800F0D1FD00202060FFF7AEFD96
S315080005907F20ADF804000120ADF80000694601A8E7
S315080005A0FFF7BCFF42F2107015490880154908800C
S315080005B01549088015490880154908801549088095
S315080005C00220FFF777FF642000F0F0FCC7E7000081
S315080005D0CC0000205C00002000080140000C01400F
S315080005E00004004000480040CD000020B400002070
S315080005F0C80000202C000020A4000020003800407D
S315080006003C000040400000403404004038040040EC
S315080006103C0400404004004030140008DFF834125F
S31508000620086850F001000860DFF82C221368DFF82C
S315080006302C02034013600B68DFF8240203400B60AA
S31508000640086830F480200860106830F4FE001060F6
S315080006505FF41F00DFF80C1208607047DFF8F4112A
S315080006600A6832F480320A600A6832F480220A6024
S31508000670B0F5803F03D0B0F5802F05D009E00868B3
S3150800068050F48030086004E0086850F4A020086040
S31508000690FFE7704780B50020009000200020312039
S315080006A000F0B9F80099491C00910099B1F5A06FBE
S315080006B002D0C0B20028F2D0312000F0ACF80028F1
S315080006C001D0012000E00020C0B202BD0022624B2A
S315080006D01A6832F47C120843104318607047C0B297
S315080006E061490860704700215B4A116889088900DA
S315080006F00843106070475848006810F00C007047AF
S315080007000021554A116831F0F0010843106070471E
S315080007100021514A116831F4E061084310607047BE
S3150800072000214D4A116831F4605151EAC001116047
S31508000730704710B40021002100210021464A1168A3
S3150800074011F00C01002904D0042905D0082906D087
S315080007501EE0474901601DE0454901601AE013683B
S3150800076013F47013116811F480319B0C9B1C00293B
S3150800077003D140494B43036009E01168890303D557
S315080007803C494B43036002E039494B43036001E0AF
S3150800079037490160116811F0F0010909364B595CB7
S315080007A00468CC404460116811F4E061090A595C98
S315080007B04468CC408460116811F46051C90A595CD8
S315080007C04368CB40C360116811F44041890B2B4A3A
S315080007D0515CC268B2FBF1F1016110BC7047C9B245
S315080007E0002904D026490A681043086004E0244911
S315080007F00A6832EA000008607047C9B2002904D0C6
S3150800080020490A681043086004E01E490A6832EA6B
S315080008100000086070470021002100210100C9B2CC
S315080008204909C9B2012902D10A49096806E002291B
S3150800083002D10E49096801E013490968C0B210F0EF
S315080008401F00C140C80701D5012000E00020C0B242
S315080008507047000000100240041002400000FFF834
S31508000860FFFFF6FE081002406000424220100240D8
S3150800087000127A0000093D003000002040000020E8
S31508000880181002401C10024024100240F0B4002246
S3150800089000220022002200220022CB7813F00F0348
S315080008A0CA78D20601D58A7813430A78120620D068
S315080008B0066800241AE0CA78482A16D1A7400761B4
S315080008C013E0012717FA04F50A882A40AA420CD130
S315080008D0A2000F259540AE4313FA02F232431600E2
S315080008E0CA78282AE7D1A7404761641C082CE8D3B0
S315080008F006600A88B2F5807F26DB4668002420E079
S31508000900012714F1080517FA05F50A882A40AA42AC
S3150800091016D1A2000F259540AE4313FA02F23243D0
S315080009201600CA78282A04D114F1080217FA02F226
S315080009304261CA78482A03D114F108029740076130
S31508000940641C082CDCD34660F0BC70474FF6FF7178
S315080009500180022181700421C170704789B201614A
S31508000960704789B24161704710B400220488DFF8E5
S31508000970F032984212D0DFF8002390420ED0B0F140
S31508000980804F0BD0DFF8DC22904207D0DFF8D82260
S31508000990904203D0DFF8D422904204D14FF68F72EA
S315080009A014404A881443DFF8C822904208D0DFF87A
S315080009B0C422904204D04FF6FF421440CA8814431A
S315080009C004808A8882850A88028598420FD0DFF8D3
S315080009D0A82290420BD0DFF8A422904207D0DFF875
S315080009E0A022904203D0DFF89C22904201D1097AD6
S315080009F001860121818210BC704730B40022002292
S31508000A000022038C4FF6FE7213400384058C8388FC
S31508000A10048B4FF68F7214404FF6FC7214400A8806
S31508000A2014434FF6FD7215400A8915434A88154343
S31508000A30DFF82C2290420FD0DFF83C2290420BD0F0
S31508000A40DFF83822904207D0DFF83422904203D0EC
S31508000A50DFF83022904213D14FF6F77215404A89D3
S31508000A6015434FF6FB7215408A8815434FF6FF6209
S31508000A7013404FF6FF5213408A891343CA8913431A
S31508000A8083800483C9888186058430BC704730B466
S31508000A90002200220022038C4FF6EF7213400384D3
S31508000AA0058C8388048B48F6FF7214404FF6FF4284
S31508000AB014400A8854EA02244FF6DF7215400A8960
S31508000AC055EA02154A8855EA0215DFF8942190423C
S31508000AD003D0DFF8B421904217D14FF67F72154044
S31508000AE04A8955EA02154FF6BF7215408A8855EAB3
S31508000AF002154FF6FF3213404FF2FF7213408A89F0
S31508000B0053EA8203CA8953EA820383800483C98825
S31508000B100187058430BC704730B4002200220022C9
S31508000B20038C4FF6FF6213400384058C8388848BFD
S31508000B304FF68F7214404FF6FC7214400A8814431D
S31508000B404FF6FF5215400A8955EA02254A8855EAA2
S31508000B500225DFF80C21904203D0DFF82C219042C1
S31508000B6017D14FF2FF7215404A8955EA02254FF60A
S31508000B70FF3215408A8855EA02254EF6FF72134061
S31508000B804DF6FF7213408A8953EA0213CA8953EA5B
S31508000B90021383808483C9888187058430BC7047A3
S31508000BA030B4002200220022038C4EF6FF72134056
S31508000BB00384048C8588838B48F6FF7213404FF6AE
S31508000BC0FF4213400A8853EA02234DF6FF72144087
S31508000BD00A8954EA02344A8854EA0234DFF8802043
S31508000BE0904203D0DFF8A020904205D14BF6FF7261
S31508000BF015408A8955EA821585808383C988A0F8B5
S31508000C004010048430BC70474FF6FF718180002184
S31508000C1001800021C18000214180002101727047B6
S31508000C200021018000214180002181800021C180AE
S31508000C300021018100214181002181810021C1819A
S31508000C407047C9B2002904D0018851F0010101801A
S31508000C5004E002884FF6FE710A40028070470000E1
S31508000C60002C01400004004000080040000C004031
S31508000C7000100040001400400034014000400140CC
S31508000C800044014000480140003401400021002191
S31508000C900F23C17800291ED01449096811F4E061B0
S31508000CA0D1F5E061090AD1F10402CB40417811FA85
S31508000CB002F281780B401A4312010D490378CA548F
S31508000CC00121027812F01F0291400A4A0078401169
S31508000CD042F8201009E00121027812F01F02914023
S31508000CE0054A0078401142F8201070470CED00E0E4
S31508000CF000E400E000E100E080E100E078B585B0BE
S31508000D0005000C0000200020002000200020A089FB
S31508000D1000282E00298A4CF6FF700140E08801431E
S31508000D202982A9894EF6F3100140A2882089024338
S31508000D30608902431143A981A98A4FF6FF40014001
S31508000D40A0890143A9826846FFF7F3FC1B4886423F
S31508000D5001D1039900E00299A889000406D5192053
S31508000D60414320684000B1FBF0F205E019204143F9
S31508000D7020688000B1FBF0F26420B2FBF0F10901B3
S31508000D800B001B09642000FB1322A889000408D560
S31508000D90D00032306422B0FBF2F010F007000143B5
S31508000DA007E0100132306422B0FBF2F010F00F00B9
S31508000DB00143298106B070BD0000000000380140DB
S31508000DC0C9B2002904D0818951F40051818104E017
S31508000DD082894DF6FF710A408281704710B400235C
S31508000DE00023002300230B0040F66A149BB2A3429B
S31508000DF00B00DBB25B09DBB289B211F01F010124DB
S31508000E0014FA01F1012B01D10C3004E0022B01D1B7
S31508000E10103000E01430D2B2002A03D00268114321
S31508000E20016003E0026832EA0101016010BC704704
S31508000E308088C005C00D704710B40022038813F4DB
S31508000E4041530C884A8814438A881443CA88144331
S31508000E500A8914434A8914438A891443CA8914435C
S31508000E6023430380838B4FF2FF7213408383098ADF
S31508000E70018210BC704700210180002141800021B9
S31508000E8081800021C180002101810021418100214A
S31508000E9081810021C181072101827047C9B20029D9
S31508000EA004D0018851F04001018004E002884FF621
S31508000EB0BF710A400280704781817047002200890D
S31508000EC0084201D0012000E00020C0B2704730B4CB
S31508000ED0002513E050F8042BD30744BFA9F10103FA
S31508000EE09A18091F042942F8045BFAD213468C079C
S31508000EF044BF15809B1CC90748BF1D7050F8041BCA
S31508000F000029E7D130BC7047020052B2002A04D447
S31508000F1009011E4A40B2115407E009011C4A40B2B1
S31508000F2010F00F00104400F8041C704780B5411EED
S31508000F30B1F1807F01D301200EE0401E15490860FB
S31508000F400F215FF0FF30FFF7DFFF0020124908602E
S31508000F50072012490860002002BD114908680028C8
S31508000F6002D00868401E0860704780B500F040F956
S31508000F700C4800680C49B0FBF1F0FFF7D7FF01BD3C
S31508000F800749086008680028FCD1704700E400E0BB
S31508000F9018ED00E014E000E018E000E010E000E0E2
S31508000FA0C40000204400002040420F0010B5040091
S31508000FB003E04FF47A70FFF7E3FF2000441E002891
S31508000FC0F7D110BD30B4002300E05B1C934207DA6A
S31508000FD031F813400500ADB2AC42F6D1012000E06D
S31508000FE0002030BC7047002204E030F8123021F8A7
S31508000FF01230521C042AF8DB7047008908807047B3
S31508001000020092B289B28A4201D380B200E000207F
S315080010107047F8B504000D00160000270EE034F8F6
S31508001020170035F81710401A00F092F95C4909883C
S3150800103080B2FFF7E5FF26F817007F1C042FEEDBCA
S31508001040F1BD30B400230DE0012422F8134008E076
S3150800105030F8134031F81350AC42F5D3002422F887
S3150800106013405B1C042BF3DB30BC70470B2801DAFA
S31508001070012000E0002070472DE9F04104000D0032
S315080010801600002712E05FEA480035F81700002826
S315080010900BD035F8170024F8180006E036F8178044
S315080010A04046FFF7E3FF0028EDD17F1C042FF5DB50
S315080010B0BDE8F0812DE9F84304000D0016001F0075
S315080010C05FF0000824E0228801238B4035F81800D9
S315080010D083409A4322800DE05FEA490136F81800FA
S315080010E00028F0D0228801238B4035F81800834069
S315080010F01A4322802088012212FA01F135F81820B5
S31508001100D2F10102914030EA0101218018F101086B
S31508001110B8F1040F07DA37F818904846FFF7A6FF24
S315080011200028D9D1F2E7BDE8F183F0B589B005000A
S315080011300E0017001C000020ADF8000069463000BC
S31508001140FFF75BFF02221749BDF80000FFF73AFFD9
S31508001150002823D005A93000FFF745FF03A928007A
S31508001160FFF741FF01AA03A905A8FFF752FF07AA3F
S3150800117003A905A8FFF765FF0B4DBDF8000005EBB1
S31508001180C00201A93800FFF777FFBDF8000005EB9C
S31508001190C00301AA07A92000FFF78CFF09B0F0BD1C
S315080011A058000020000000200400002080B55D499A
S315080011B0086850F0010008605B4A13685B48034002
S315080011C013600B685A4803400B60086830F48020A7
S315080011D00860106830F4FE0010605FF41F0055497F
S315080011E0086000F044F85FF000605349086001BDEC
S315080011F00020002000204C49086810F00C00002848
S3150800120004D0042806D0082808D023E04B484C4AC6
S31508001210106022E049484A4A10601EE00A6812F443
S315080012207012086810F48030920C921C002804D1C1
S3150800123044484243424802600BE00868800304D5EC
S31508001240404842433E48026003E03C4842433C482B
S31508001250026002E039483A4A106008683A49C0F321
S315080012600310085C36490A68C2400A60704780B5B0
S3150800127000F001F801BD82B0002001900020009026
S315080012802849086850F480300860086810F400306F
S3150800129000900198401C01900098002803D10198FD
S315080012A0B0F5A06FF1D10868800302D5012000903F
S315080012B001E0002000900098012831D123480268F7
S315080012C052F01002026002689208920002600268F8
S315080012D052F0020202601448026802600268026064
S315080012E0026852F480620260026832F47C1202607C
S315080012F0026852F4E81202600A6852F080720A60C4
S315080013000A689201FCD501688908890001600168AC
S3150800131051F002010160016811F00C010829FAD1A7
S3150800132002B0704700100240041002400000FFF8A7
S31508001330FFFFF6FE0810024008ED00E000127A00F2
S315080013404400002000093D0048000020002002401B
S31508001350002848BF4042704730B501688468421883
S31508001360416802EB5103C90703D54C4401E0491C07
S3150800137005D19A420AD012F9011B12F8015B00291D
S3150800138004F8015BF3D4491EF7D5F2E70C3030BDFB
S3150800139010B5074979441831064C7C44163404E0E4
S315080013A00A68081D114488470146A142F8D110BDB4
S315080013B0080000002400000017FBFFFF740000006F
S315080013C05C0000200000000091FFFFFF4C010000B8
S315080013D09A0000000000002000F00DF8002801D057
S315080013E0FFF7D6FFAFF300800020AFF30080FFF7CA
S315080013F0AAF800F002F80120704700F001B80000D2
S315080014000746384600F002F8FBE7000080B5AFF360
S315080014100080024A11001820ABBEFBE72600020036
S315080014200148804701480047AD1100083D140008EF
S315080014307F0000000000000000000000AFF30080FD
S31508001440AFF30080FFF7C8FFFFF7FEBFFFF7FEBF49
S31508001450FFF7FEBFFFF7FEBFFFF7FEBFFFF7FEBFB2
S31508001460FFF7FEBFFFF7FEBFFFF777BDFFF7FEBF2B
S31508001470FFF7FEBFFFF7FEBFFFF7FEBFFFF7FEBF92
S31508001480FFF7FEBFFFF7FEBFFFF7FEBFFFF7FEBF82
S31508001490FFF7FEBFFFF7FEBFFFF7FEBFFFF7FEBF72
S315080014A0FFF7FEBFFFF7FEBFFFF7FEBFFFF7FEBF62
S315080014B0FFF7FEBFFFF7FEBFFFF7FEBFFFF7FEBF52
S315080014C0FFF7FEBFFFF7FEBFFFF7FEBFFFF7FEBF42
S315080014D0FFF7FEBFFFF7FEBFFFF7FEBFFFF7FEBF32
S315080014E0FFF7FEBFFFF7FEBFFFF7FEBFFFF7FEBF22
S315080014F0FFF7FEBFFFF7FEBFFFF7FEBFFFF7FEBF12
S31508001500FFF7FEBFFFF7FEBFFEF7DBBEFFF7FEBF26
S31508001510FFF7FEBFFFF7FEBF0301000200F8FF0654
S3150800152000000100020003FD00160100040005008A
S315080015300600070008000900060007000A000B005D
S3150800154001F900130102030401020304060708094E
S315080015500204060800A24A04F80009010203040668
S30A080015600708091E0042
S7050800143DA1
